:100000000C9462000C948A000C948A000C948A0070
:100010000C948A000C948A000C948A000C948A0038
:100020000C948A000C948A000C948A000C948A0028
:100030000C948A000C948A000C948A000C948A0018
:100040000C948F020C948A000C94FF020C94D90239
:100050000C948A000C948A000C948A000C948A00F8
:100060000C948A000C948A000000000023002600F3
:10007000290000000000240027002A0000000000E2
:10008000250028002B0004040404040404040202D4
:100090000202020203030303030301020408102007
:1000A0004080010204081020010204081020000012
:1000B0000008000201000003040700000000000027
:1000C0000000360411241FBECFEFD8E0DEBFCDBF45
:1000D00011E0A0E0B1E0E0EEF8E002C005900D9282
:1000E000AA33B107D9F721E0AAE3B1E001C01D921C
:1000F000A03EB207E1F710E0C2E6D0E004C02197CD
:10010000FE010E946304C136D107C9F70E94310382
:100110000C946E040C940000833081F028F481303C
:1001200099F08230A1F008958730A9F08830B9F0B5
:100130008430D1F4809180008F7D03C08091800055
:100140008F7780938000089584B58F7702C084B53F
:100150008F7D84BD08958091B0008F7703C080911A
:10016000B0008F7D8093B00008951F93CF93DF93ED
:10017000282F30E0F901E255FF4F8491F901E6564E
:10018000FF4FD491F901EA57FF4FC491CC23C1F03E
:10019000162F81110E948C00EC2FF0E0EE0FFF1F54
:1001A000E458FF4FA591B4919FB7F894111104C082
:1001B0008C91D095D82302C0EC91DE2BDC939FBFAD
:1001C000DF91CF911F910895CF93DF9390E0FC01D1
:1001D000E656FF4F2491FC01EA57FF4F8491882394
:1001E00061F190E0880F991FFC01EE58FF4FC59117
:1001F000D491FC01E458FF4FA591B491611109C05D
:100200009FB7F8948881209582238883EC912E23D0
:100210000BC0623061F49FB7F8948881322F30951B
:1002200083238883EC912E2B2C939FBF06C08FB71E
:10023000F894E8812E2B28838FBFDF91CF9108950A
:100240003FB7F8948091DC019091DD01A091DE012F
:10025000B091DF0126B5A89B05C02F3F19F001968C
:10026000A11DB11D3FBFBA2FA92F982F8827820F3C
:10027000911DA11DB11DBC01CD0142E0660F771F8C
:10028000881F991F4A95D1F708958F929F92AF9238
:10029000BF92CF92DF92EF92FF920E9420014B011A
:1002A0005C0188E8C82E83E1D82EE12CF12C0E9455
:1002B0002001DC01CB0188199909AA09BB09883EF4
:1002C0009340A105B10598F321E0C21AD108E108D5
:1002D000F10888EE880E83E0981EA11CB11CC114A1
:1002E000D104E104F10419F7FF90EF90DF90CF9073
:1002F000BF90AF909F908F900895CF92DF92EF9232
:10030000FF920F931F93CF93DF936C017A018B01C0
:10031000C0E0D0E0CE15DF0581F0D8016D918D01F0
:10032000D601ED91FC910190F081E02DC601099577
:10033000892B11F02196EECF7E01C701DF91CF917D
:100340001F910F91FF90EF90DF90CF900895089547
:1003500080E090E00895FC01538D448D252F30E01E
:10036000842F90E0821B930B541710F0CF960895C2
:1003700001970895FC01918D828D981761F0828D0F
:10038000DF01A80FB11D5D968C91928D9F5F9F73C9
:10039000928F90E008958FEF9FEF0895FC01918D6B
:1003A000828D981731F0828DE80FF11D858D90E0D8
:1003B00008958FEF9FEF0895FC01918D228D892F75
:1003C00090E0805C9F4F821B91098F73992708955D
:1003D0008AE391E00E94DC0121E0892B09F420E00E
:1003E000822F0895FC01848DDF01A80FB11DA35A4F
:1003F000BF4F2C91848D90E001968F739927848F45
:10040000A689B7892C93A089B1898C918370806467
:100410008C93938D848D981306C00288F389E02D08
:1004200080818F7D80830895EF92FF920F931F93B9
:10043000CF93DF93EC0181E0888F9B8D8C8D981397
:1004400005C0E889F989808185FD26C0F62E0B8DCF
:1004500010E00F5F1F4F0F731127E02E8C8DE812F5
:100460000CC00FB607FCFACFE889F989808185FFB7
:10047000F5CFCE010E94F201F1CF8B8DFE01E80F86
:10048000F11DE35AFF4FF0829FB7F8940B8FEA8972
:10049000FB89808180620AC09FB7F894EE89FF894A
:1004A0006083E889F98980818370806480839FBF3D
:1004B00081E090E0DF91CF911F910F91FF90EF903D
:1004C0000895CF93DF93EC01888D8823C9F0EA89E2
:1004D000FB89808185FD05C0A889B9898C9186FD3D
:1004E0000FC00FB607FCF5CF808185FFF2CFA8893A
:1004F000B9898C9185FFEDCFCE010E94F201E7CF43
:10050000DF91CF91089580E090E0892B29F00E943F
:10051000E80181110C94000008950E9469041F9263
:100520000F920FB60F9211242F933F938F939F93A7
:10053000AF93BF938091D8019091D901A091DA0136
:10054000B091DB013091D70123E0230F2D3720F448
:100550000196A11DB11D05C026E8230F0296A11D1D
:10056000B11D2093D7018093D8019093D901A09316
:10057000DA01B093DB018091DC019091DD01A09163
:10058000DE01B091DF010196A11DB11D8093DC0158
:100590009093DD01A093DE01B093DF01BF91AF9195
:1005A0009F918F913F912F910F900FBE0F901F90B1
:1005B00018951F920F920FB60F9211242F933F930D
:1005C0004F935F936F937F938F939F93AF93BF935B
:1005D000EF93FF938AE391E00E94F201FF91EF9184
:1005E000BF91AF919F918F917F916F915F914F914B
:1005F0003F912F910F900FBE0F901F9018951F9253
:100600000F920FB60F9211242F938F939F93EF9316
:10061000FF93E0914A01F0914B018081E0915001FC
:10062000F091510182FD12C09081809153018F5F42
:100630008F7320915401821751F0E0915301F0E043
:10064000E65CFE4F958F8093530101C08081FF913E
:10065000EF919F918F912F910F900FBE0F901F9050
:100660001895789484B5826084BD84B5816084BD1A
:1006700085B5826085BD85B5816085BD80916E0040
:10068000816080936E001092810080918100826071
:1006900080938100809181008160809381008091AE
:1006A00080008160809380008091B100846080939D
:1006B000B1008091B00081608093B00080917A0099
:1006C000846080937A0080917A00826080937A00BF
:1006D00080917A00816080937A0080917A008068AE
:1006E00080937A001092C10062E082E00E94E400F0
:1006F00061E083E00E94E40061E085E00E94E400A4
:1007000061E086E00E94E40061E089E00E94E4008C
:1007100061E08AE00E94E40061E08BE00E94E40076
:1007200061E083E00E94B50061E089E00E94B500CD
:10073000E0914A01F0914B0182E08083E091460113
:10074000F09147011082E0914801F09149018FEC4E
:10075000808310925201E0914E01F0914F0186E0AA
:100760008083E0914C01F0914D0180818061808314
:10077000E0914C01F0914D01808188608083E0918F
:100780004C01F0914D01808180688083E0914C01A3
:10079000F0914D0180818F7D808344E250E062E1E1
:1007A00071E08AE391E00E947D0142E050E067E35E
:1007B00071E08AE391E00E947D01C0EBD0E00CE99A
:1007C00010E098E8E92E90E0F92EFE018491F801FE
:1007D000C490F701D490D11039C060E089E00E9444
:1007E000B50061E08AE00E94B5000E94450160E02A
:1007F00083E00E94B50061E085E00E94B50060E002
:100800008AE00E94B50061E08BE00E94B5000E9482
:10081000450160E085E00E94B50061E086E00E944D
:10082000B50060E08BE00E94B50061E089E00E94C5
:10083000B5000E94450160E086E00E94B50061E0DD
:1008400083E00E94B5000E948302BFCF81110E9405
:100850008C00ED2DF0E0EE0FFF1FE859FF4FA59142
:10086000B4918C918C2109F4B8CFAFCFEAE3F1E0D9
:100870001382128288EE93E0A0E0B0E08483958337
:10088000A683B78384E091E09183808385EC90E038
:100890009587848784EC90E09787868780EC90E04A
:1008A000918B808B81EC90E0938B828B82EC90E03B
:1008B000958B848B86EC90E0978B868B118E128EB5
:1008C000138E148E0895EE0FFF1F0590F491E02D06
:1008D000099481E090E0F8940C946E04F894FFCFB2
:1008E0000000000014027D01AB016102DC01BA01CD
:1008F000CE0154776F206C696E6B656420332041A4
:100900007370656374207369676E616C73207374B0
:0A091000617274696E67000D0A0041
:00000001FF
