:100000000C9462000C948A000C948A000C948A0070
:100010000C948A000C948A000C948A000C948A0038
:100020000C948A000C948A000C948A000C948A0028
:100030000C948A000C948A000C948A000C948A0018
:100040000C9489030C948A000C94F9030C94D30348
:100050000C948A000C948A000C948A000C948A00F8
:100060000C948A000C948A000000000024002700F1
:100070002A0000000000250028002B0000000000DE
:1000800023002600290004040404040404040202DA
:100090000202020203030303030301020408102007
:1000A0004080010204081020010204081020000012
:1000B0000008000201000003040700000000000027
:1000C00000002B0411241FBECFEFD8E0DEBFCDBF50
:1000D00011E0A0E0B1E0E2E1FFE002C005900D9286
:1000E000A834B107D9F722E0A8E4B1E001C01D921D
:1000F000AC34B207E1F710E0C2E6D0E004C02197CB
:10010000FE010E947C07C136D107C9F70E9426056F
:100110000C9487070C940000833081F028F4813020
:1001200099F08230A1F008958730A9F08830B9F0B5
:100130008430D1F4809180008F7D03C08091800055
:100140008F7780938000089584B58F7702C084B53F
:100150008F7D84BD08958091B0008F7703C080911A
:10016000B0008F7D8093B00008950F931F93CF93BD
:10017000DF93EC012A813B813327F901E255FF4FE0
:100180008491F901E656FF4F0491F901EA57FF4FB8
:100190001491112381F181110E948C00E12FF0E074
:1001A000EE0FFF1FE458FF4FA591B491EC91E023AF
:1001B00011F12FB7F89480914D0190914E01A091CB
:1001C0004F01B09150012FBF0C811D812E813F81C5
:1001D000BC01CD01601B710B820B930B28E833E14E
:1001E00040E050E00E944B0739872887DF91CF918C
:1001F0001F910F9108952FB7F89480914D01909120
:100200004E01A0914F01B09150012FBF8C839D836F
:10021000AE83BF83CECF1F93CF93DF93282F30E0E1
:10022000F901E255FF4F8491F901E656FF4FD49151
:10023000F901EA57FF4FC491CC23C1F0162F811169
:100240000E948C00EC2FF0E0EE0FFF1FEE58FF4FE6
:10025000A591B4919FB7F894111104C08C91D095D9
:10026000D82302C0EC91DE2BDC939FBFDF91CF91AE
:100270001F910895CF93DF9390E0FC01E656FF4F66
:100280002491FC01EA57FF4F8491882361F190E0AB
:10029000880F991FFC01E859FF4FC591D491FC01CB
:1002A000EE58FF4FA591B491611109C09FB7F89422
:1002B0008881209582238883EC912E230BC06230A5
:1002C00061F49FB7F8948881322F30958323888317
:1002D000EC912E2B2C939FBF06C08FB7F894E8812A
:1002E0002E2B28838FBFDF91CF910895CF92DF927D
:1002F000EF92FF920F931F93CF93DF936C017A01DC
:100300008B01C0E0D0E0CE15DF0581F0D8016D9102
:100310008D01D601ED91FC910190F081E02DC60197
:100320000995892B11F02196EECF7E01C701DF914F
:10033000CF911F910F91FF90EF90DF90CF90089594
:10034000089580E090E00895FC01538D448D252FA1
:1003500030E0842F90E0821B930B541710F0CF965F
:10036000089501970895FC01918D828D981761F091
:10037000828DDF01A80FB11D5D968C91928D9F5FDC
:100380009F73928F90E008958FEF9FEF0895FC0187
:10039000918D828D981731F0828DE80FF11D858D3A
:1003A00090E008958FEF9FEF0895FC01918D228DCD
:1003B000892F90E0805C9F4F821B91098F73992752
:1003C000089581E591E00E94D50121E0892B09F48F
:1003D00020E0822F0895FC01848DDF01A80FB11D5C
:1003E000A35ABF4F2C91848D90E001968F7399276B
:1003F000848FA689B7892C93A089B1898C91837049
:1004000080648C93938D848D981306C00288F38941
:10041000E02D80818F7D80830895EF92FF920F936E
:100420001F93CF93DF93EC0181E0888F9B8D8C8DA0
:10043000981305C0E889F989808185FD26C0F62ECC
:100440000B8D10E00F5F1F4F0F731127E02E8C8D67
:10045000E8120CC00FB607FCFACFE889F989808151
:1004600085FFF5CFCE010E94EB01F1CF8B8DFE0110
:10047000E80FF11DE35AFF4FF0829FB7F8940B8FFE
:10048000EA89FB89808180620AC09FB7F894EE896F
:10049000FF896083E889F989808183708064808323
:1004A0009FBF81E090E0DF91CF911F910F91FF906E
:1004B000EF900895CF93DF93EC01888D8823C9F0E6
:1004C000EA89FB89808185FD05C0A889B9898C915D
:1004D00086FD0FC00FB607FCF5CF808185FFF2CFF8
:1004E000A889B9898C9185FFEDCFCE010E94EB01DF
:1004F000E7CFDF91CF91089580E090E0892B29F03C
:100500000E94E10181110C94000008958F929F9246
:10051000AF92BF92CF92DF92EF92FF920F931F9311
:10052000CF93DF938C018FB7F89440914D01509198
:100530004E0160914F01709150018FBFF801C5804D
:10054000D680E780F08446015701F4EF8F0EF1E08A
:100550009F1EA11CB11CF801848184169506A60675
:10056000B70628F4811129C0C0E0D0E028C09A0164
:10057000AB012C193D094E095F09882361F0AFEFEB
:10058000B0E00E94380724EF31E040E050E00E94E4
:100590001907E90114C0A1E0BFEF0E94460724EF4C
:1005A00031E040E050E00E941907DA01C9018150B2
:1005B0009F4FAF4FBF4FEC0102C0CFEFD0E0F8012B
:1005C0000281138161E0802F0E943A01209709F493
:1005D00047C0CF3FD10509F445C0F801FF27E255D8
:1005E000FF4FE491E330F9F048F4E130B9F0E23044
:1005F000A1F584B5806284BDC8BD44C0E730E9F090
:10060000E83019F1E43049F58091800080628093F0
:100610008000D0938B00C0938A0034C084B580687A
:1006200084BDC7BD2FC0809180008068809380000A
:10063000D0938900C093880025C08091B000806865
:100640008093B000C093B3001DC08091B000806261
:100650008093B000C093B40015C0C038D10514F425
:1006600060E001C061E0802FDF91CF911F910F9179
:10067000FF90EF90DF90CF90BF90AF909F908F90C2
:100680000C940B01DF91CF911F910F91FF90EF9090
:10069000DF90CF90BF90AF909F908F9008950F9371
:1006A0001F93FC018481861759F164838FB7F894F6
:1006B00040914D0150914E0160914F017091500158
:1006C0008FBF85819681A781B0858C019D010C50DB
:1006D0001E4F2F4F3F4F041715072607370760F0AF
:1006E000440F551F661F771F445F51406109710910
:1006F000481B590B6A0B7B0B4583568367837087B6
:100700001F910F910895FC018085918508950E94A5
:1007100082071F920F920FB60F9211242F933F93CF
:100720008F939F93AF93BF9380914D0190914E0112
:10073000A0914F01B091500130914C0123E0230F63
:100740002D3720F40196A11DB11D05C026E8230F09
:100750000296A11DB11D20934C0180934D019093F1
:100760004E01A0934F01B0935001809148019091A8
:100770004901A0914A01B0914B010196A11DB11D03
:100780008093480190934901A0934A01B0934B0193
:10079000BF91AF919F918F913F912F910F900FBE7D
:1007A0000F901F9018951F920F920FB60F92112461
:1007B0002F933F934F935F936F937F938F939F9369
:1007C000AF93BF93EF93FF9381E591E00E94EB011C
:1007D000FF91EF91BF91AF919F918F917F916F9119
:1007E0005F914F913F912F910F900FBE0F901F90EF
:1007F00018951F920F920FB60F9211242F938F937B
:100800009F93EF93FF93E0916101F09162018081EA
:10081000E0916701F091680182FD12C090818091A2
:100820006A018F5F8F7320916B01821751F0E09105
:100830006A01F0E0EF5AFE4F958F80936A0101C084
:100840008081FF91EF919F918F912F910F900FBE1B
:100850000F901F9018957F928F929F92AF92BF92A8
:10086000CF92DF92EF92FF920F931F93CF93DF937C
:10087000E1E5F1E01382128288EE93E0A0E0B0E0BF
:1008800084839583A683B78384E091E091838083FA
:1008900085EC90E09587848784EC90E09787868745
:1008A00080EC90E0918B808B81EC90E0938B828B3D
:1008B00082EC90E0958B848B86EC90E0978B868B16
:1008C000118E128E138E148E82E4882E82E0982E62
:1008D000CEE1D1E0F401D183C08382E090E0938344
:1008E000828314821582168217821186108662E036
:1008F0000E943A0198E3A92E92E0B92EF501D18326
:10090000C08388E090E093838283148215821682EC
:1009100017821186108662E00E943A012FE2C22EF1
:1009200022E0D22EC6E1D1E0F601D183C08383E07C
:1009300090E0938382831482158216821782108638
:1009400061E00E943A0136E2E32E32E0F32EF70135
:10095000D183C08385E090E093838283772473946E
:100960007482158216821782108661E00E943A0115
:100970000DE112E0F801D183C08386E090E093831B
:1009800082831482158216821782108661E00E948B
:100990003A01E3E1F2E091828082D382C282F58261
:1009A000E48217830683118610864AE0C42E42E053
:1009B000D42EF601D183C08389E090E093838283B3
:1009C0001482158216821782108661E00E943A0115
:1009D00051E0E52E52E0F52EF701D183C0838AE085
:1009E00090E0938382837482158216821782108628
:1009F00061E00E943A0108EF11E0F801D183C08361
:100A00008BE090E093838283148215821682178292
:100A1000108661E00E943A01EEEEF1E0B182A08220
:100A2000D382C282F582E482178306831186108600
:100A3000DF91CF911F910F91FF90EF90DF90CF90BA
:100A4000BF90AF909F908F907F900895789484B5D9
:100A5000826084BD84B5816084BD85B5826085BDBA
:100A600085B5816085BD80916E00816080936E0048
:100A7000109281008091810082608093810080913A
:100A800081008160809381008091800081608093EB
:100A900080008091B10084608093B1008091B000AB
:100AA00081608093B00080917A00846080937A00A6
:100AB00080917A00826080937A0080917A008160D0
:100AC00080937A0080917A00806880937A001092F7
:100AD000C100E0916101F091620182E08083E091C8
:100AE0005D01F0915E011082E0915F01F091600183
:100AF0008FEC808310926901E0916501F0916601AD
:100B000086E08083E0916301F091640180818061DF
:100B10008083E0916301F09164018081886080832B
:100B2000E0916301F0916401808180688083E091AD
:100B30006301F091640180818F7D808344E250E005
:100B400060E271E081E591E00E94760142E050E0D0
:100B500065E471E081E591E00E94760102E010E039
:100B600082E492E00E94B50088E392E00E94B50022
:100B70008091130290911402DC01ED91FC9101909F
:100B8000F081E02D0995EC01009761F1019709F0E2
:100B900052C08091190290911A02DC01ED91FC91F2
:100BA0000190F081E02D61E009958091150290910E
:100BB0001602DC01ED91FC910190F081E02D60E0E6
:100BC00009958091170290911802DC01ED91FC913A
:100BD0000190F081E02D60E00995D0931C02C09354
:100BE0001B0251C08091170290911802DC01ED9117
:100BF000FC910190F081E02D61E009958091150252
:100C000090911602DC01ED91FC910190F081E02DB4
:100C100060E009958091190290911A02DC01ED9132
:100C2000FC910190F081E02D60E0099510921C028A
:100C300010921B0228C08091150290911602DC01CF
:100C4000ED91FC910190F081E02D61E0099580919A
:100C5000170290911802DC01ED91FC910190F08156
:100C6000E02D60E009958091190290911A02DC0153
:100C7000ED91FC910190F081E02D60E009951093D9
:100C80001C0200931B028091150290911602DC0158
:100C9000ED91FC910280F381E02D0995809117027E
:100CA00090911802DC01ED91FC910280F381E02D1E
:100CB00009958091190290911A02DC01ED91FC9145
:100CC0000280F381E02D0995C0911B02D0911C0296
:100CD0008091EE019091EF01DC01ED91FC9101908A
:100CE000F081E02D0995892B79F1219669F1C130C8
:100CF000D10509F052C08091F4019091F501DC0119
:100D0000ED91FC910190F081E02D61E009958091D9
:100D1000F0019091F101DC01ED91FC910190F081E5
:100D2000E02D60E009958091F2019091F301DC01E2
:100D3000ED91FC910190F081E02D60E00995D09358
:100D4000F701C093F60151C08091F2019091F30137
:100D5000DC01ED91FC910190F081E02D61E00995BD
:100D60008091F0019091F101DC01ED91FC910190F5
:100D7000F081E02D60E009958091F4019091F501FA
:100D8000DC01ED91FC910190F081E02D60E009958E
:100D90001092F7011092F60128C08091F001909115
:100DA000F101DC01ED91FC910190F081E02D61E019
:100DB00009958091F2019091F301DC01ED91FC9194
:100DC0000190F081E02D60E009958091F40190910F
:100DD000F501DC01ED91FC910190F081E02D60E0E6
:100DE00009951093F7010093F6018091F00190911D
:100DF000F101DC01ED91FC910280F381E02D099578
:100E00008091F2019091F301DC01ED91FC9102805F
:100E1000F381E02D09958091F4019091F501DC01B9
:100E2000ED91FC910280F381E02D09950E947C02F6
:100E300097CE052E97FB1EF400940E94300757FDB5
:100E400007D00E944B0707FC03D04EF40C943007E8
:100E500050954095309521953F4F4F4F5F4F0895E6
:100E600090958095709561957F4F8F4F9F4F089516
:100E70000E946D07A59F900DB49F900DA49F800DBB
:100E8000911D11240895B7FF0C9438070E9438076C
:100E9000821B930B0895A1E21A2EAA1BBB1BFD0116
:100EA0000DC0AA1FBB1FEE1FFF1FA217B307E40749
:100EB000F50720F0A21BB30BE40BF50B661F771FA1
:100EC000881F991F1A9469F7609570958095909581
:100ED0009B01AC01BD01CF010895A29FB001B39F5A
:100EE000C001A39F700D811D1124911DB29F700D33
:100EF000811D1124911D0895EE0FFF1F0590F4919F
:100F0000E02D099481E090E0F8940C948707F89420
:020F1000FFCF11
:100F1200000000000D027601A4015A02D501B301BE
:100F2200C701000000004F03860200000000830397
:100F320054776F204C696E6B656420332041737067
:100F4200656374207369676E616C73207374617278
:080F520074696E67000D0A00CE
:00000001FF
