:100000000C9461000C9473000C9473000C947300B6
:100010000C9473000C9473000C9473000C94730094
:100020000C9473000C9473000C9473000C94730084
:100030000C9473000C9473000C9473000C94730074
:100040000C9466010C9473000C9473000C94730070
:100050000C9473000C9473000C9473000C94730054
:100060000C9473000C947300000000002300260021
:10007000290000000000240027002A0000000000E2
:10008000250028002B0004040404040404040202D4
:100090000202020203030303030301020408102007
:1000A0004080010204081020010204081020000012
:1000B0000008000201000003040700000000000027
:1000C000000011241FBECFEFD8E0DEBFCDBF21E07E
:1000D000A0E0B1E001C01D92A930B207E1F70E9493
:1000E000B0010C944C020C940000833081F028F491
:1000F000813099F08230A1F008958730A9F08830DE
:10010000B9F08430D1F4809180008F7D03C080915C
:1001100080008F7780938000089584B58F7702C028
:1001200084B58F7D84BD08958091B0008F7703C022
:100130008091B0008F7D8093B00008951F93CF937E
:10014000DF93282F30E0F901E255FF4F8491F90148
:10015000E656FF4FD491F901EA57FF4FC491CC23E3
:10016000C1F0162F81110E947500EC2FF0E0EE0F08
:10017000FF1FE458FF4FA591B4919FB7F894111158
:1001800004C08C91D095D82302C0EC91DE2BDC9377
:100190009FBFDF91CF911F910895CF93DF9390E0A0
:1001A000FC01E656FF4F2491FC01EA57FF4F849172
:1001B000882361F190E0880F991FFC01EE58FF4FF2
:1001C000C591D491FC01E458FF4FA591B491611100
:1001D00009C09FB7F8948881209582238883EC9189
:1001E0002E230BC0623061F49FB7F8948881322FC0
:1001F000309583238883EC912E2B2C939FBF06C0D0
:100200008FB7F894E8812E2B28838FBFDF91CF9191
:1002100008953FB7F8948091050190910601A0914F
:100220000701B091080126B5A89B05C02F3F19F022
:100230000196A11DB11D3FBFBA2FA92F982F882766
:10024000820F911DA11DB11DBC01CD0142E0660FC1
:10025000771F881F991F4A95D1F708958F929F9213
:10026000AF92BF92CF92DF92EF92FF920E9409016C
:100270004B015C0188E8C82E83E1D82EE12CF12CDB
:100280000E940901DC01CB0188199909AA09BB095F
:10029000883E9340A105B10598F321E0C21AD10828
:1002A000E108F10888EE880E83E0981EA11CB11CBD
:1002B000C114D104E104F10419F7FF90EF90DF902D
:1002C000CF90BF90AF909F908F9008951F920F9204
:1002D0000FB60F9211242F933F938F939F93AF9359
:1002E000BF938091010190910201A0910301B0910F
:1002F00004013091000123E0230F2D3720F40196F3
:10030000A11DB11D05C026E8230F0296A11DB11D38
:10031000209300018093010190930201A0930301B7
:10032000B09304018091050190910601A09107010D
:10033000B09108010196A11DB11D80930501909314
:100340000601A0930701B0930801BF91AF919F915F
:100350008F913F912F910F900FBE0F901F90189586
:10036000789484B5826084BD84B5816084BD85B590
:10037000826085BD85B5816085BD80916E0081609C
:1003800080936E0010928100809181008260809342
:100390008100809181008160809381008091800044
:1003A0008160809380008091B10084608093B1006F
:1003B0008091B00081608093B00080917A00846069
:1003C00080937A0080917A00826080937A00809195
:1003D0007A00816080937A0080917A0080688093AF
:1003E0007A001092C10062E082E00E94CD0061E0DC
:1003F00083E00E94CD0061E085E00E94CD0061E0D5
:1004000086E00E94CD0061E083E00E949E00C0EB88
:10041000D0E00CE910E098E8E92E90E0F92E20E019
:10042000C22E20E0D22EFE018491F801A490F701A3
:10043000B490BB2071F081110E947500EB2DF0E0AB
:10044000EE0FFF1FE859FF4FA591B4918C918A21BF
:1004500051F760E083E00E949E0061E085E00E9429
:100460009E000E942E0160E085E00E949E0061E0F7
:1004700086E00E949E000E942E0160E086E00E94BD
:100480009E0061E083E00E949E00C114D10409F443
:0C049000CACF0E940000C7CFF894FFCF35
:00000001FF
