:100000000C9462000C948A000C948A000C948A0070
:100010000C948A000C948A000C948A000C948A0038
:100020000C948A000C948A000C948A000C948A0028
:100030000C948A000C948A000C948A000C948A0018
:100040000C9438020C948A000C94A8020C9482023E
:100050000C948A000C948A000C948A000C948A00F8
:100060000C948A000C948A000000000023002600F3
:10007000290000000008000201000003040700003E
:1000800000000000000000000000250028002B00F8
:1000900000000000240027002A00040404040404D3
:1000A0000404020202020202030303030303010227
:1000B00004081020408001020408102001020408F6
:1000C0001020160311241FBECFEFD8E0DEBFCDBF36
:1000D00011E0A0E0B1E0E2E7F8E002C005900D9287
:1000E000AA33B107D9F721E0AAE3B1E001C01D921C
:1000F000A43FB207E1F710E0C2E6D0E004C02197C8
:10010000FE010E942C04C136D107C9F70E948A0360
:100110000C9437040C940000FC01538D448D252F62
:1001200030E0842F90E0821B930B541710F0CF9691
:10013000089501970895FC01918D828D981761F0C3
:10014000828DDF01A80FB11D5D968C91928D9F5F0E
:100150009F73928F90E008958FEF9FEF0895FC01B9
:10016000918D828D981731F0828DE80FF11D858D6C
:1001700090E008958FEF9FEF0895FC01918D228DFF
:10018000892F90E0805C9F4F821B91098F73992784
:100190000895FC01848DDF01A80FB11DA35ABF4F44
:1001A0002C91848D90E001968F739927848FA68976
:1001B000B7892C93A089B1898C91837080648C93CA
:1001C000938D848D981306C00288F389E02D808179
:1001D0008F7D80830895EF92FF920F931F93CF93AB
:1001E000DF93EC0181E0888F9B8D8C8D981305C087
:1001F000E889F989808185FD26C0F62E0B8D10E0F7
:100200000F5F1F4F0F731127E02E8C8DE8120CC06B
:100210000FB607FCFACFE889F989808185FFF5CF11
:10022000CE010E94C900F1CF8B8DFE01E80FF11DB8
:10023000E35AFF4FF0829FB7F8940B8FEA89FB894E
:10024000808180620AC09FB7F894EE89FF8960833D
:10025000E889F98980818370806480839FBF81E011
:1002600090E0DF91CF911F910F91FF90EF90089553
:10027000CF93DF93EC01888D8823C9F0EA89FB894D
:10028000808185FD05C0A889B9898C9186FD0FC044
:100290000FB607FCF5CF808185FFF2CFA889B98919
:1002A0008C9185FFEDCFCE010E94C900E7CFDF9191
:1002B000CF91089583E491E00E94BD0021E0892B55
:1002C00009F420E0822F089580E090E0892B29F046
:1002D0000E945A0181110C9400000895833081F02E
:1002E00028F4813099F08230A1F008958730A9F088
:1002F0008830B9F08430D1F4809180008F7D03C0C4
:10030000809180008F7780938000089584B58F77E7
:1003100002C084B58F7D84BD08958091B0008F7731
:1003200003C08091B0008F7D8093B0000895CF927C
:10033000DF92EF92FF920F931F93CF93DF936C01A5
:100340007A018B01C0E0D0E0CE15DF0581F0D80145
:100350006D918D01D601ED91FC910190F081E02D20
:10036000C6010995892B11F02196EECF7E01C701B8
:10037000DF91CF911F910F91FF90EF90DF90CF9081
:100380000895089580E090E008951F93CF93DF9340
:10039000DC0112962D913C9113973327F901EE5809
:1003A000FF4F8491F901E255FF4FD491F901E656D0
:1003B000FF4FC491CC23C9F014961C9181110E9467
:1003C0006E01EC2FF0E0EE0FFF1FEA57FF4FA591F3
:1003D000B4919FB7F894111104C08C91D095D82393
:1003E00002C0EC91DE2BDC939FBFDF91CF911F9178
:1003F0000895FC0164830895CF93DF93FC0122816B
:1004000033813327F901EE58FF4F8491F901E2550A
:10041000FF4FD491F901E656FF4FC491CC2379F0F8
:1004200081110E946E01EC2FF0E0EE0FFF1FE859E2
:10043000FF4FA591B491EC91ED2381E009F480E0A8
:100440008170DF91CF910895009769F0FC010190D0
:100450000020E9F73197AF01481B590BBC0183E439
:1004600091E00C94970180E090E008950E9432049E
:100470001F920F920FB60F9211242F933F938F93D9
:100480009F93AF93BF9380913F0190914001A091C2
:100490004101B091420130913E0123E0230F2D37FD
:1004A00020F40196A11DB11D05C026E8230F029678
:1004B000A11DB11D20933E0180933F019093400107
:1004C000A0934101B093420180913A0190913B0188
:1004D000A0913C01B0913D010196A11DB11D8093F9
:1004E0003A0190933B01A0933C01B0933D01BF9131
:1004F000AF919F918F913F912F910F900FBE0F90D1
:100500001F9018951F920F920FB60F9211242F93E0
:100510003F934F935F936F937F938F939F93AF938B
:10052000BF93EF93FF9383E491E00E94C900FF9192
:10053000EF91BF91AF919F918F917F916F915F915B
:100540004F913F912F910F900FBE0F901F901895D4
:100550001F920F920FB60F9211242F938F939F9398
:10056000EF93FF93E0915301F09154018081E0916A
:100570005901F0915A0182FD12C0908180915C0175
:100580008F5F8F7320915D01821751F0E0915C01C4
:10059000F0E0ED5BFE4F958F80935C0101C08081A0
:1005A000FF91EF919F918F912F910F900FBE0F9020
:1005B0001F901895CF93DF9390E0FC01E255FF4F19
:1005C0002491FC01E656FF4F8491882361F190E06D
:1005D000880F991FFC01E057FF4FC591D491FC0192
:1005E000EA57FF4FA591B491611109C09FB7F894E4
:1005F0008881209582238883EC912E230BC0623062
:1006000061F49FB7F8948881322F309583238883D3
:10061000EC912E2B2C939FBF06C08FB7F894E881E6
:100620002E2B28838FBFDF91CF910895CF92DF9239
:10063000EF92FF920F931F93CF93DF93E3E4F1E0E8
:100640001382128288EE93E0A0E0B0E08483958369
:10065000A683B78384E091E09183808385EC90E06A
:100660009587848784EC90E09787868780EC90E07C
:10067000918B808B81EC90E0938B828B82EC90E06D
:10068000958B848B86EC90E0978B868B118E128EE7
:10069000138E148E80EFE82E81E0F82E8EE191E02B
:1006A000F7019183808382E090E09383828362E00C
:1006B0000E94DA020BEE11E096E1C92E91E0D92EEC
:1006C000F801D182C08283E090E093838283148218
:1006D00061E00E94DA02C6EED1E0D982C88285E0EC
:1006E00090E09B838A8381E08C8361E085E00E94B7
:1006F000DA02E0EEF1E0F182E08213830283D58337
:10070000C483DF91CF911F910F91FF90EF90DF9005
:10071000CF900895789484B5826084BD84B581605B
:1007200084BD85B5826085BD85B5816085BD8091BC
:100730006E00816080936E00109281008091810034
:10074000826080938100809181008160809381002C
:10075000809180008160809380008091B1008460EE
:100760008093B1008091B00081608093B00080914F
:100770007A00846080937A0080917A00826080930E
:100780007A0080917A00816080937A0080917A006B
:10079000806880937A001092C1008091E00190916E
:1007A000E101DC01ED91FC910190F081E02D0995D2
:1007B0008823C9F080E291E00E9424028CE291E05B
:1007C0000E9424028091E2019091E301DC01ED910D
:1007D000FC910190F081E02D61E009958091E401A8
:1007E0009091E50118C08FE291E00E9424028CE212
:1007F00091E00E9424028091E4019091E501DC01E6
:10080000ED91FC910190F081E02D61E009958091DE
:10081000E2019091E301DC01ED91FC910190F08106
:10082000E02D60E009958091E2019091E301DC0107
:10083000ED91FC910280F381E02D09958091E40116
:100840009091E501DC01ED91FC910280F381E02DB6
:1008500009950E946401A1CFEE0FFF1F0590F4914E
:10086000E02D099481E090E0F8940C943704F8941A
:02087000FFCFB8
:1008720000000000EB0097018C003801BD009B00D6
:10088200AF0000000000F901C50100000000FC01FA
:1008920073746174653D475245454E000D0A0073FD
:0A08A200746174653D524544000086
:00000001FF
