:100000000C9462000C948A000C948A000C948A0070
:100010000C948A000C948A000C948A000C948A0038
:100020000C948A000C948A000C948A000C948A0028
:100030000C948A000C948A000C948A000C948A0018
:100040000C9426020C948A000C9496020C94700274
:100050000C948A000C948A000C948A000C948A00F8
:100060000C948A000C948A000000000023002600F3
:10007000290000000008000201000003040700003E
:1000800000000000000000000000250028002B00F8
:1000900000000000240027002A00040404040404D3
:1000A0000404020202020202030303030303010227
:1000B00004081020408001020408102001020408F6
:1000C0001020040311241FBECFEFD8E0DEBFCDBF48
:1000D00011E0A0E0B1E0E8EBF8E002C005900D927D
:1000E000AC33B107D9F721E0ACE3B1E001C01D9218
:1000F000A63FB207E1F710E0C2E6D0E004C02197C6
:10010000FE010E944F04C136D107C9F70E9478034F
:100110000C945A040C940000833081F028F4813050
:1001200099F08230A1F008958730A9F08830B9F0B5
:100130008430D1F4809180008F7D03C08091800055
:100140008F7780938000089584B58F7702C084B53F
:100150008F7D84BD08958091B0008F7703C080911A
:10016000B0008F7D8093B0000895CF92DF92EF9220
:10017000FF920F931F93CF93DF936C017A018B0152
:10018000C0E0D0E0CE15DF0581F0D8016D918D0182
:10019000D601ED91FC910190F081E02DC601099509
:1001A000892B11F02196EECF7E01C701DF91CF910F
:1001B0001F910F91FF90EF90DF90CF9008950895D9
:1001C00080E090E00895FC01538D448D252F30E0B0
:1001D000842F90E0821B930B541710F0CF96089554
:1001E00001970895FC01918D828D981761F0828DA1
:1001F000DF01A80FB11D5D968C91928D9F5F9F735B
:10020000928F90E008958FEF9FEF0895FC01918DFC
:10021000828D981731F0828DE80FF11D858D90E069
:1002200008958FEF9FEF0895FC01918D228D892F06
:1002300090E0805C9F4F821B91098F7399270895EE
:1002400085E491E00E94140121E0892B09F420E06B
:10025000822F0895FC01848DDF01A80FB11DA35AE0
:10026000BF4F2C91848D90E001968F739927848FD6
:10027000A689B7892C93A089B1898C9183708064F9
:100280008C93938D848D981306C00288F389E02D9A
:1002900080818F7D80830895EF92FF920F931F934B
:1002A000CF93DF93EC0181E0888F9B8D8C8D981329
:1002B00005C0E889F989808185FD26C0F62E0B8D61
:1002C00010E00F5F1F4F0F731127E02E8C8DE81287
:1002D0000CC00FB607FCFACFE889F989808185FF49
:1002E000F5CFCE010E942A01F1CF8B8DFE01E80FE0
:1002F000F11DE35AFF4FF0829FB7F8940B8FEA8904
:10030000FB89808180620AC09FB7F894EE89FF89DB
:100310006083E889F98980818370806480839FBFCE
:1003200081E090E0DF91CF911F910F91FF90EF90CE
:100330000895CF93DF93EC01888D8823C9F0EA8973
:10034000FB89808185FD05C0A889B9898C9186FDCE
:100350000FC00FB607FCF5CF808185FFF2CFA889CB
:10036000B9898C9185FFEDCFCE010E942A01E7CF9C
:10037000DF91CF91089580E090E0892B29F00E94D1
:10038000200181110C94000008951F93CF93DF93F7
:10039000DC0112962D913C9113973327F901EE5809
:1003A000FF4F8491F901E255FF4FD491F901E656D0
:1003B000FF4FC491CC23C9F014961C9181110E9467
:1003C0008C00EC2FF0E0EE0FFF1FEA57FF4FA591D6
:1003D000B4919FB7F894111104C08C91D095D82393
:1003E00002C0EC91DE2BDC939FBFDF91CF911F9178
:1003F0000895FC0164830895CF93DF93FC0122816B
:1004000033813327F901EE58FF4F8491F901E2550A
:10041000FF4FD491F901E656FF4FC491CC2379F0F8
:1004200081110E948C00EC2FF0E0EE0FFF1FE859C5
:10043000FF4FA591B491EC91ED2381E009F480E0A8
:100440008170DF91CF9108950E9455041F920F9201
:100450000FB60F9211242F933F938F939F93AF93D7
:10046000BF938091410190914201A0914301B091CD
:1004700044013091400123E0230F2D3720F40196F1
:10048000A11DB11D05C026E8230F0296A11DB11DB7
:10049000209340018093410190934201A093430136
:1004A000B093440180913C0190913D01A0913E01A7
:1004B000B0913F010196A11DB11D80933C01909325
:1004C0003D01A0933E01B0933F01BF91AF919F9139
:1004D0008F913F912F910F900FBE0F901F90189505
:1004E0001F920F920FB60F9211242F933F934F93A9
:1004F0005F936F937F938F939F93AF93BF93EF938C
:10050000FF9385E491E00E942A01FF91EF91BF9152
:10051000AF919F918F917F916F915F914F913F919B
:100520002F910F900FBE0F901F9018951F920F9252
:100530000FB60F9211242F938F939F93EF93FF93F6
:10054000E0915501F09156018081E0915B01F091BD
:100550005C0182FD12C0908180915E018F5F8F737C
:1005600020915F01821751F0E0915E01F0E0EB5BBA
:10057000FE4F958F80935E0101C08081FF91EF91C6
:100580009F918F912F910F900FBE0F901F901895F4
:10059000CF93DF9390E0FC01E255FF4F2491FC01E3
:1005A000E656FF4F8491882361F190E0880F991FF0
:1005B000FC01E057FF4FC591D491FC01EA57FF4F72
:1005C000A591B491611109C09FB7F89488812095D5
:1005D00082238883EC912E230BC0623061F49FB795
:1005E000F8948881322F309583238883EC912E2BC9
:1005F0002C939FBF06C08FB7F894E8812E2B2883D9
:100600008FBFDF91CF910895CF92DF92EF92FF924B
:100610000F931F93CF93DF93E5E4F1E013821282EF
:1006200088EE93E0A0E0B0E084839583A683B7834F
:1006300084E091E09183808385EC90E095878487C6
:1006400084EC90E09787868780EC90E0918B808B9C
:1006500081EC90E0938B828B82EC90E0958B848B85
:1006600086EC90E0978B868B118E128E138E148EF3
:1006700082EFE82E81E0F82E8EE191E0F701918380
:10068000808382E090E09383828362E00E94C802CC
:100690000DEE11E096E1C92E91E0D92EF801D1823C
:1006A000C08283E090E09383828381E0848361E071
:1006B00083E00E94C802C8EED1E0D982C88285E0FA
:1006C00090E09B838A831C8261E00E94C802E2EE74
:1006D000F1E0F182E08213830283D583C483DF914A
:1006E000CF911F910F91FF90EF90DF90CF900895E1
:1006F000789484B5826084BD84B5816084BD85B5FD
:10070000826085BD85B5816085BD80916E00816008
:1007100080936E00109281008091810082608093AE
:1007200081008091810081608093810080918000B0
:100730008160809380008091B10084608093B100DB
:100740008091B00081608093B00080917A008460D5
:1007500080937A0080917A00826080937A00809101
:100760007A00816080937A0080917A00806880931B
:100770007A001092C100E0915501F091560182E09B
:100780008083E0915101F09152011082E091530178
:10079000F09154018FEC808310925D01E09159013A
:1007A000F0915A0186E08083E0915701F091580161
:1007B000808180618083E0915701F09158018081B0
:1007C00088608083E0915701F091580180818068B2
:1007D0008083E0915701F091580180818F7D808363
:1007E00048E150E060E271E085E491E00E94B500EC
:1007F00042E050E069E371E085E491E00E94B500D9
:100800008091E2019091E301DC01ED91FC91019076
:10081000F081E02D0995882389F08091E401909181
:10082000E501DC01ED91FC910190F081E02D61E0AA
:1008300009958091E6019091E70110C08091E60151
:100840009091E701DC01ED91FC910190F081E02DA8
:1008500061E009958091E4019091E501DC01ED9161
:10086000FC910190F081E02D60E009958091E40118
:100870009091E501DC01ED91FC910280F381E02D86
:1008800009958091E6019091E701DC01ED91FC91E1
:100890000280F381E02D09950E94BB01B1CFEE0FDC
:1008A000FF1F0590F491E02D099481E090E0F89409
:0808B0000C945A04F894FFCFE8
:1008B800000000004C01B500E30099011401F200AA
:1008C800060100000000F901C50100000000FC015C
:1008D8005369676E616C20322041737065637420C0
:0C08E8007374617274696E67000D0A0081
:00000001FF
